:020000040800F2
:10000000E026002051020008C12D0008772D0008CD
:10001000BD2D0008F31500082F3600080000000071
:100020000000000000000000000000007F31000818
:10003000F7150008000000003D2E000825330008D9
:100040006B0200086B0200086B0200086B020008DC
:100050006B0200086B0200086B0200086B020008CC
:100060006B0200086B0200086B0200086B020008BC
:100070006B0200086B0200086B0200086B020008AC
:100080006B0200086B0200086B0200086B0200089C
:100090006B0200086B0200086B0200086B0200088C
:1000A0006B0200086B0200086B0200086B0200087C
:1000B0006B0200086B0200086B0200086B0200086C
:1000C0006B0200086B0200086B0200086B0200085C
:1000D0006B0200080D340008393400086B02000878
:1000E0006B0200086B0200086B0200086B0200083C
:1000F0006B0200086B0200086B0200086B0200082C
:100100006B0200086B0200086B0200086B0200081B
:100110006B0200086B0200086B0200086B0200080B
:100120006B0200086B0200086B0200086B020008FB
:100130006B0200086B0200086B0200086B020008EB
:100140006B0200086B0200086B0200086B020008DB
:100150006B0200086B0200086B0200086B020008CB
:100160006B0200086B0200086B0200086B020008BB
:100170006B0200086B0200086B0200086B020008AB
:100180006B0200086B02000800F002F800F050F863
:100190000AA090E8000C82448344AAF10107DA45E2
:1001A00001D100F045F8AFF2090EBAE80F0013F0E4
:1001B000010F18BFFB1A43F001031847DC3C000095
:1001C000FC3C0000103A24BF78C878C1FAD8520726
:1001D00024BF30C830C144BF04680C6070470000C1
:1001E0000023002400250026103A28BF78C1FBD840
:1001F000520728BF30C148BF0B607047662903F023
:10020000FE85642900F0A880002070471FB503F028
:10021000ECFD9DE8030000F083F900F035FC0400DC
:100220000020002103F064FBE0601FBD10B510BD8D
:1002300000F063FD1146FFF7E9FF03F04DFB00F00E
:1002400081FD03B4FFF7F2FF03BC03F02DFB0000B8
:100250000948804709480047FEE7FEE7FEE7FEE75A
:10026000FEE7FEE7FEE7FEE7FEE7FEE70448054996
:10027000054A064B70470000A533000889010008B5
:10028000E0200020E0260020E0220020E0220020E4
:10029000704770B5064600F027F9056806F10B00B7
:1002A00020F00704B4429CBF002070BD2B466A6852
:1002B000BAB11068A04210D304F1080188423CBFD3
:1002C0005068586007D35168101941601168091BC4
:1002D000016058601460101D70BD13465268002AFA
:1002E000E7D12146284600F007F90028DED170BD8D
:1002F00070B50446051F00F0F7F80068002C14BF25
:10030000446870BD002C18BFAC423CBF20466468F6
:10031000F8D301680A18AA4218BF456003D12A68B9
:1003200005461144016028684119A1421CBF6C6058
:1003300070BD6168696021680844286070BD000074
:100340000FB4044910B503AA029800F087FB10BC53
:100350005DF814FB180000202DE9F041064600244A
:1003600010687529314616A510D0AFF3008000281B
:1003700002DA404213A507E031688A0701D512A5C9
:1003800002E0490704D511A5012401E0AFF3008084
:1003900000210A2206F1240709E0B0FBF2FCB0FBC1
:1003A000F2F302FB1C00303078541846491C002838
:1003B000F3D123462A463046BDE8F04100F0E6B8C6
:1003C000000000002D0000002B00000020000000B5
:1003D0002DE9F0474FF0000A89460446C0F820A0F6
:1003E0002046E1688847002876D0252806D0D4E941
:1003F00001219047206A401C2062F1E7E168204615
:1004000000258847C4F81CA006460027C4F818A099
:100410002A2E09D0304603F040FA38B304EB87089F
:10042000303EC8F8186019E059F8041B204604EB68
:1004300087029161E1688847012F064618D1E0697B
:10044000002820DA25F020051DE0D8F8180000EB80
:10045000800006EB40003038C8F818002046E168FC
:100460008847064603F019FA0028EED1012F0AD07A
:100470002E2E08D12046E16888477F1C0646022FB1
:1004800045F02005C4DBA069002803DA404245F0AE
:100490000105A061E80701D025F01005B6B1A6F16D
:1004A0004100192802D8203645F400654A463146F5
:1004B000204625604D46FFF7A1FE58B1012806D021
:1004C000ED1D25F0070000F1080989E704E005F1BA
:1004D000040985E730468AE7206ABDE8F08770475F
:1004E0007047704770470000004870478820002020
:1004F000704770477047704738B504460A46002079
:100500006946AFF30080002808BF38BD0246009955
:10051000204600F0BDFA012038BD012000F0E6BB06
:10052000F8B5AFF30080054600200C46102000BF50
:100530000646A819A0420DD9324669460020AFF3FD
:100540000080070008BF00F0D1FB0098A04218BF50
:100550000546C419FFF7C8FF05600746F01D20F0E7
:1005600007004619284600F00AF8B44208BFF8BD53
:10057000A21B31463868BDE8F84000F089BA002176
:100580000160C0E901107047102070472DE9F04765
:100590000D4699469246044600F1240801688806F3
:1005A00004D5E06921F01001216000E00120A8429B
:1005B00001DD471B00E00027A1697A1902EB090061
:1005C000081AA0612078C00602D42046AFF300804C
:1005D000002608E0D4E901211AF806009047206AB5
:1005E000401C761C20624E45F4DB2078C0060AD5FC
:1005F0002046AFF3008006E0D4E901213020904787
:10060000206A401C2062381EA7F10107F4DC07E0D5
:10061000D4E9012118F805009047206A401C2062A7
:10062000281EA5F10105F3DC2046AFF300802078F9
:10063000000602D50220BDE8F0870120FBE77047E5
:100640002DE9FF4F0C461E464FF0FF378BB0D2E925
:100650000001DDF860800A908A46C1F30A5505B9A9
:100660003D46002108464FF00000BAF1000F00F4AB
:10067000400005DA00EB80004FF4400101EA500031
:100680004FEA9059B9F1010F00DDB9460A9850EAD6
:100690004A000ED044F61050A5F2FF3545432F1402
:1006A000B8F1000F1ED07542291E1EDDC9F10002EF
:1006B0001CE0B8F1010F4FF0000001D0302103E041
:1006C000F24305E02154401CB042FBDB30460022DF
:1006D000002121540B99C1F80880C1E900200FB016
:1006E000BDE8F08FBD1B6D1CDEE74A4600DA6942AB
:1006F00006A800F085FA06AB93E8070003AB83E891
:10070000070050460A9900F0ACFB8DE80700A0F501
:1007100000501F3800900398002D0ADD42F21F019F
:100720004A460844002303A90390684600F015FEDA
:1007300009E0A0F500504A461F38002303A90390A2
:10074000684600F01FFE8DE807000004000C03D08F
:100750004FF0FF30410800E01046B8F1000F03D021
:100760000022009215461EE0751E05D400F0AAF97D
:10077000303262556D1EF9D5B3460122084302D0CE
:1007800000227F1C04E02078302801D100227F1E47
:10079000002A099784D01DE0112D07DA00F092F9A4
:1007A000303262556D1C50EA0102F5D1084302D087
:1007B0000098C8B10EE00021681E05E0235C625C71
:1007C00063542254401E491C8142F7DBAB46A81BF0
:1007D000401E0990002004F80B000B98099AC0F8FD
:1007E0000880C0E9002B7AE711264FF0000857E790
:1007F0002DE9F04F88460446D21D22F0070191B042
:10080000D1E90001CDE90A0103F02FF802460B9867
:10081000C00F01D02D2007E02068810701D52B20D3
:1008200002E0202101EAC000032A099001D0072A32
:1008300005DB03464146204600F0A2F90BE1207893
:10084000800601D5E06900E00620B8F1650F814619
:1008500006D0B8F1660F18D0B8F1670F70D131E04B
:100860000020B9F1110F009001DB112301E009F123
:1008700001030AAA01A90CA8FFF7E2FEDDE90C704A
:10088000002609F10105834647E001204B46009010
:100890004FF000470AAA01A90CA8FFF7D1FEDDE935
:1008A0000DB00C995D46002610B909F101000D1834
:1008B000B9EB050003D4C0F1FF3609F10105A5EB42
:1008C00009002BE0B9F1010F01DA4FF00109002016
:1008D000B9F1110F0090484601DD112300E00346F5
:1008E0000AAA01A90CA8FFF7ABFEDDE90C704D4682
:1008F00000268346207800070AD4AB4500DA5D461F
:1009000001A8012D04DD411911F8011C302907D07F
:100910004F4502DA17F1040F04DA012082460FE096
:100920006D1EEEE7002F02DCED1B3E4403E0781C59
:10093000A84200DD7D1CB81B00F1010A4FF0004702
:100940002078000703D4AA4501DB4FF0FF3A0021CD
:10095000B7F1004F0DF143088DF8431024D0022069
:100960002B23002F01DA7F422D230A21021EA0F142
:10097000010000DC5FB197FBF1FC97FBF1F201FB9A
:100980001C7C17460CF1300C08F801CDEEE7A8F1FD
:10099000010003702188090501D5452100E065218A
:1009A000A0F1010800F8011C09980FA9A1EB0807A4
:1009B000FF1D00B10120411901EBEA70A169384423
:1009C000081A401EA0612078C00602D42046AFF36A
:1009D0000080099828B1D4E901219047206A401C81
:1009E00020622078C00622D52046AFF300801EE0AA
:1009F000002E04DBB34502DD01A8805D00E030205D
:100A0000D4E901219047206A401C2062761CAAF19B
:100A100001005FEA000A0AD100F036F8C0680168F8
:100A2000405CD4E901219047206A401C2062281EC6
:100A3000A5F10105DCDC07E0D4E9012118F8010B80
:100A40009047206A401C2062381EA7F10107F3DCA2
:100A50002046AFF30080032011B041E6074B70B58C
:100A60000D467B4400F079F80446284600F03AF938
:100A700010B14FF0FF3070BD204670BD4B2E00000E
:100A8000004870478020002000487047A0200020C8
:100A9000034640688C46002818BF88423CBF034686
:100AA0004068F8D318681844884207D00CF1030056
:100AB00020F00700001D411A521A0146081D0A6065
:100AC000FFF716BC30B5B0F10A024FEA900E71F193
:100AD00000034EEA817EB0EB0E0061EB91014FEA1C
:100AE000101E4EEA017E10EB0E0041EB11114FEA91
:100AF000102E4EEA016E10EB0E0041EB11214FEA71
:100B0000104E4EEA014E10EB0E0041EB1141401821
:100B100041F100014FEAD00040EA41704FEAD101B3
:100B200010EB80054FEA810444EA907444EB010421
:100B30006D1944EB0404521BA3414FF0000348BF5E
:100B40000A3200D530BD401C41F1000130BD00002B
:100B500001694A1C02610878704700B58FB0CDE981
:100B600001310021059105497944CDE90310114671
:100B70006846FFF72DFC0FB000BD0000E5FFFFFF4A
:100B80002DE9F0411F46044603260168072A01F4B7
:100B9000006004DB08B116A505E016A503E008B166
:100BA00015A500E015A521F010002060A069C01E69
:100BB000A0610FB1401EA0612046AFF300804FB18D
:100BC000D4E9012138469047206A401C2062C01CAD
:100BD000206206E0206AFAE7D4E9012115F8010B4A
:100BE0009047761EF8D22046AFF30080BDE8F08132
:100BF0004E414E006E616E00494E4600696E6600C1
:100C00002DE9F047814616468AB0354878440DC82C
:100C10008DE80D0032487844801C03AC0DC884E890
:100C20000D0041F69B300844372190FBF1F290FB18
:100C3000F1F5A5F1800501FB12041B3C02D56442CD
:100C4000012000E00020DFF898A080460027FA4449
:100C5000AAF1BE0A0EE0E0070AD03246684607EB6A
:100C6000470101230AEB810100F08CFB8DE80700AE
:100C700064107F1C002CEED1194F7F44AE3F19E069
:100C8000E80715D007EB04100DF1180A90E80E00E4
:100C90008AE80E00C068F04201D1981908903246E7
:100CA000012306A903A800F06DFB03AB83E807004E
:100CB0006D10641C002DE3D14FF0010332466946EC
:100CC000B8F1000F03A802D000F047FB01E000F0EC
:100CD00059FBC9E90001C9F808200AB0BDE8F0874E
:100CE00070320000007B00F08000704710B500F00B
:100CF00037F8BDE8104000F02EB87546FFF7C0FE8B
:100D0000AE4605006946534620F00700854618B0F8
:100D100020B5FFF7ABFABDE820404FF000064FF0DA
:100D200000074FF000084FF0000B21F00701AC4620
:100D3000ACE8C009ACE8C009ACE8C009ACE8C0093F
:100D40008D46704710B50446AFF300802046BDE8DD
:100D50001040FFF776BA002801D002F0A5BD704719
:100D600010B5012805D0002103A000F061F8012092
:100D700010BD09A1F8E7000053494752544D454DB5
:100D80003A204F7574206F662068656170206D652C
:100D90006D6F7279000000003A2048656170206D27
:100DA000656D6F727920636F72727570746564001F
:100DB0004FF0013C50F8042B51F8043B9A4221D1EA
:100DC000A2EB0C03934313EACC1317D150F8042B76
:100DD00051F8043B9A4215D1A2EB0C03934313EA5A
:100DE000CC130BD150F8042B51F8043B9A4209D193
:100DF000A2EB0C03934313EACC13DBD04FF00000BB
:100E0000704700BFD01A01BAB1FA81F101F01801A0
:100E100022FA01F0CB40C1F12001DBB2C0B2C01A0E
:100E20002CFA01F3D11A914311EAC311E6D17047AC
:100E300070B505460C460A2000E06D1C02F036FD38
:100E400035B128780028F8D102E0641C02F02EFDAC
:100E500014B120780028F8D1BDE870400A2002F0D3
:100E600025BD5FEA400C08BF91F0000F4FEA8C23CC
:100E70004FEAC12243EA51514FEA1C5018BF00F516
:100E8000F0404FEA300018BF41F000415FEA6C5C6F
:100E900000F02980BCF1FF3F08BF40F08040704760
:100EA000130C06BF12044FF0100C4FF0000C130E81
:100EB00004BF12020CF1080C130F04BF12010CF155
:100EC000040C930F04BF92000CF1020CD30F04BF6B
:100ED00052000CF1010C11464FF00002A0F11F006E
:100EE000A0EB0C00704711F0004F08BF704731F0C5
:100EF00000413FF4D5AF0B0C06BF09044FF0100CB6
:100F00004FF0000C0B0E04BF09020CF1080C0B0F84
:100F100004BF09010CF1040C8B0F04BF89000CF114
:100F2000020CCB0F04BF49000CF1010CCCF12003E3
:100F3000A0EB0C0022FA03F302FA0CF241EA0301DF
:100F400000F10100704720F07F4C80EA030023F09D
:100F50007F47ACEB070303F57C5300F0004003F13F
:100F6000FF032DE980494FEA154B09B44FEA1443BA
:100F700025EA0B4E24EA03480FF2042606EB13275A
:100F800049083E785FEA320203FB0667C7F50007AF
:100F900007FB06F64FEA54374FEAD64606F102063B
:100FA00007FB066CCCF1005C4FEA1C472CEA074CAF
:100FB00007FB06F40CFB06F504EB15464FEA961604
:100FC00034BF00204FF000404FEAD13706FB07FC4A
:100FD0004FEA1C4C0CFB0BF7D21B03FB0CF761EB2D
:100FE00007010CFB0EF7B0EB074072EB17420CFB4E
:100FF00008F734BFA2EB0742B2EB074261EB17419F
:101000004FEA0C444FEA910706FB07FC4FEA1C4CE1
:101010000CFB0BF7B0EBC74072EB573203FB0CF73E
:1010200034BFA2EBC742B2EBC74261EB57310CFBB6
:101030000EF7B0EBC70072EB57720CFB08F734BF2A
:10104000A2EBC702B2EBC70261EB5771039F4FEAF5
:10105000816141EA921104EBCC044FEAD1374FEAA7
:10106000826206FB07FC42EA90124FEA80604FEA78
:101070001C4C0CFB0BF7D21B03FB0CF761EB0701BD
:101080000CFB0EF7B0EB074072EB17420CFB08F7B6
:1010900034BFA2EB0742B2EB074261EB17414FEAC4
:1010A0008C554FEA910704EB9C2406FB07FC4FEAA2
:1010B0001C4C0CFB0BF7B0EBC74072EB573203FB39
:1010C0000CF734BFA2EBC742B2EBC74261EB57311A
:1010D0000CFB0EF7B0EBC70072EB57720CFB08F776
:1010E00034BFA2EBC702B2EBC70261EB577115EB3D
:1010F0004C254FEA816141EA92114FEA82624FEA40
:10110000D13742EA901206FB07FC44F100044FEA93
:1011100080604FEA1C4C0CFB0BF7D21B03FB0CF757
:1011200061EB07010CFB0EF7B0EB074072EB1742C7
:101130000CFB08F734BFA2EB0742B2EB074261EBAE
:10114000174115EB1C154FEA813141EA92414FEAF4
:10115000823242EA90424FEA80304FEA0C7644F104
:10116000000448EA03434EEA0B484FF0000EB2EB8E
:10117000080C71EB030724BF624639464EEB0E0E96
:101180004FF0000B0018524149414BEB0B0BB2EBF7
:10119000080C71EB03077BF1000B24BF6246394654
:1011A0004EEB0E0E4FF0000B0018524149414BEB35
:1011B0000B0BB2EB080C71EB03077BF1000B24BFA8
:1011C000624639464EEB0E0E51EA020718BF46F052
:1011D000010616EB0E7655F1000254F1000103D51D
:1011E000BDE88901BDE80088BDE88901BDE8004887
:1011F000B619524141EB0101A3F101037047808010
:101200007F7E7D7C7B7A7978777676757473727160
:1012100071706F6E6E6D6C6C6B6A6A696868676618
:1012200066656464636362616160605F5F5E5E5DAA
:101230005D5C5C5B5B5A5A5959585857575656551E
:1012400055555454535352525251515050504F4F80
:101250004F4E4E4D4D4D4C4C4C4B4B4B4A4A4A49D0
:101260004949484848474747474646464545454413
:101270004444444343434342424242414141002BA0
:101280009C4630D477002BD01CB54FEA370703B407
:101290004FF010004FF01001BAF1000F06D0BCF172
:1012A000000FDCBF40F0080040F008014FF00000E4
:1012B0000FBCBDE810400BF1010BBBF1010F08BFE3
:1012C0005FEA170722BF12F1010211F101014FF08D
:1012D000004143F1000300F0004043EA0000704782
:1012E000F9D35708D0E746EA064613F1400F4FEA14
:1012F00016461FDD13F1200FDFBF16430A460021FB
:1013000020335B42BED0C3F1200746EA064602FA0C
:1013100007F74FEA164646EA0706C3F1200722FA06
:1013200003F201FA07F721FA03F14FF0000342EA52
:101330000702A7E746EA020646EA06464FEA1646CD
:1013400046EA0106BCBF46EA0646360C4FF00003EB
:101350004FF000024FF0000194E72DE9804C9A46CF
:10136000934670B491E8380007C831EA400C48BF92
:1013700034EA430C03D5FFF7E6FDFFF780FFF0BC2E
:10138000BDE8008C2DE9804C9A46934670B491E8F4
:10139000380007C810F0804F08BF13F0804F03D10A
:1013A00000F005F8FFF76BFFF0BCBDE8008C20F003
:1013B0007F4780EA030023F07F4C07EB0C03A3F583
:1013C0007C5300F00040A3F1FE0392F0000F00F008
:1013D000B38095F0000F00F077802DE901494FEAC6
:1013E00011404FEA144621EA004800FB06FC24EABB
:1013F000064708FB06F607FB08F800FB07F718EBA3
:1014000006484CEB164C4FEA124B18EB07484FEAD4
:1014100015464CEB174022EA0B4E0BFB06FC25EA67
:1014200006470EFB06F607FB0EFE0BFB07F71EEB4F
:10143000064E4CEB164C4FF000061EEB074E4CEBE5
:10144000174B18EB0B0840F1000018EB0E0B58EB94
:10145000000840F100008F1A4FF000013CBFC94363
:10146000661B14BFB5EB040C00213CBFC943F61B3F
:101470004FEA17444EEA8E0E27EA04454FEA1C470E
:1014800004FB07622CEA074C05FB07F70CFB05F68B
:1014900004FB0CFC16EB074642EB174216EB0C461E
:1014A00042EB1C421BEB060658EB0202414146EAA6
:1014B0009E0601D5BDE80189B619524141EB0101F3
:1014C000A3F10103BDE801894FEA14454FEA114732
:1014D00024EA054621EA074C05FB07F406FB07F75B
:1014E0000CFB06F105FB0CFC11EB074144EB174428
:1014F0004FEA124711EB0C4144EB1C4422EA074C23
:1015000005FB07F206FB07F70CFB06F605FB0CFCD8
:1015100016EB074642EB174216EB0C4642EB1C4516
:101520006A1854F1000148BF7047B619524141EBA7
:101530000101A3F10103704795F0000F37D04FEA86
:1015400011424FEA144721EA024624EA074C02FB03
:1015500007F106FB07F70CFB06F402FB0CFC14EB8F
:10156000074441EB17414FEA154714EB0C4441EB9C
:101570001C4125EA074C02FB07F506FB07F70CFBAD
:1015800006F602FB0CFC16EB074645EB174516EB7F
:101590000C4645EB1C42121951F1000148BF70473F
:1015A000B619524141EB0101A3F1010370474FEA23
:1015B00014454FEA114724EA054621EA074C05FB8A
:1015C00007F106FB07F70CFB06F24FF0000605FBE0
:1015D0000CFC12EB074241EB174112EB0C4251EBB2
:1015E0001C4148BF7047921841EB0101A3F1010370
:1015F000704700BFFEE77047024600EE102AB8EEC3
:10160000400ADFED0A0A60EE200A00EE101AB8EE7A
:10161000400A80EE801A9FED060A21EE000ABCEE19
:10162000C00A10EE100A80B2704700000000B443F8
:1016300000007A4408A0FEF783FE0BE04FF47A70B6
:1016400001F066FE0A48006808B9012000E00020A9
:1016500007490860F2E700003D3D3D546573742082
:101660004C454420426C696E6B3D3D3D0D0A0000C7
:10167000A4824242002518A0FEF762FE2BE0294614
:101680001D48006800F0B8FD044684B91BA0FEF7B1
:1016900057FE01201D4908601D48D0F8A80208B96E
:1016A000012000E000201949091D08600FE02146D3
:1016B00018A0FEF745FE1548006808B9012000E0B3
:1016C00000201249086001201149C1F8A8024FF416
:1016D0007A7001F01DFED2E73D3D3D5465737420E4
:1016E0005561727420536572766F2050696E673D44
:1016F0003D3D720A00000000140000205365727620
:101700006F204F6E6C696E65200D0A00A482424204
:1017100000804242536572766F204F66666C696E38
:10172000652C4572726F7220436F64653D2564209D
:101730000D0A00002DED048B84B000259FED190AE1
:1017400010EE106A02A803AB332229460090164817
:10175000006800F0EFFD0446214614A0FEF7F0FDFE
:10176000DCB9BDF90C0002F063FA41EC190B9FEDF6
:101770001B0B53EC102B02F003F941EC180B02F099
:10178000CDF80646304602F0BFFA41EC180B53EC98
:10179000182B14A0FEF7D4FD02E01BA0FEF7D0FD2D
:1017A00000BFFEE700000000140000203D3D3D3D6D
:1017B0003D72656164207573657220646174613D7A
:1017C0003D3D3D3D3D0D0A2073746174757320638A
:1017D0006F64653A2025640D0A00000000000000D7
:1017E0000000244072656164207375636573732C17
:1017F00020616E676C65206C696D6974206869672B
:10180000683A2025660D0A006661696C0D0A0000C1
:10181000002529460948006800F054FE0446214688
:1018200007A0FEF78DFD1CB911A0FEF789FD02E0AF
:1018300012A0FEF785FD00BFFEE7000014000020A7
:101840003D3D3D3D3D726573657420757365722045
:10185000646174613D3D3D3D3D3D0D0A2073746101
:1018600074757320636F64653A2025640D0A000067
:101870007375636573730D0A000000006661696C1F
:101880000D0A000004460E2C22D2DFE804F02107E6
:10189000090B0D0F11131517191B1D1FFFF7CAFE9A
:1018A00000F09EFAFFF7E6FE00F076F800F012F87E
:1018B00000F02CF900F020FA00F0FAFA00F02AFB10
:1018C00000F05AFBFFF7A4FFFFF734FF00F07EFBA8
:1018D000FFF7B0FE08B54FF4FA6500260024002794
:1018E0004FE033462A469FED270A00212648009400
:1018F000006800F021FE33462A469FED240A0121AC
:1019000021480094006800F017FE3A469FED1D0A3A
:1019100000211D48006801F0D9F83A469FED1B0AE6
:1019200001211948006801F0D1F84FF4FA6001F084
:10193000EFFC33462A469FED160A00211248009418
:10194000006800F0F9FD33462A469FED120A012196
:101950000D480094006800F0EFFD3A469FED0C0A38
:1019600000210948006801F0B1F83A469FED090AE4
:1019700001210548006801F0A9F84FF4FA6001F070
:10198000C7FCAEE70000B44214000020000034425F
:101990000000B4C2000034C22DED048B84B04FF0BF
:1019A00000089FED400AF0EE408A0024012578E00F
:1019B0003DA0FEF7C5FC9FED400AF0EE408A4FF4D3
:1019C000FA6923464A46B0EE680A41463B4800950C
:1019D000006800F0B1FD03AA41463848006800F0F5
:1019E00025FC039802F090F941EC190B53EC192BEC
:1019F00033A0FEF7A5FC484601F08AFC35A0FEF7AF
:101A00009FFC9FED280AF0EE408A4FF47A79642615
:101A1000962733464A46B0EE680A41462748CDE944
:101A200000740295006800F0E7FD03AA41462348D0
:101A3000006800F0FBFB039802F066F941EC190B1B
:101A400053EC192B1EA0FEF77BFC4FF4FA6001F05B
:101A50005FFC26A0FEF774FC9FED2A0AF0EE408A98
:101A60009FED298A00BF00BF3B463246F0EE480A90
:101A7000B0EE680A41461148CDE90045006800F023
:101A800029FE03AA41460D48006800F0CFFB0398E9
:101A900002F03AF941EC190B53EC192B08A0FEF7B0
:101AA0004FFC85E700000000474F544F3A20393083
:101AB0002E30660D0A0000000000B4421400002021
:101AC00043757220416E676C653A20252E31660D94
:101AD0000A000000474F544F2B496E7465727661BF
:101AE0006C3A20302E30660D0A000000474F544FEC
:101AF0002B56656C6F636974793A202D392E3066E8
:101B00000D0A00000000B4C2000048432DED048B14
:101B100084B04FF0000800250124A0E050A0FEF79B
:101B20000FFC9FED550AF0EE408A4FF4FA692B4600
:101B30004A46B0EE680A414650480094006800F0FA
:101B400059FE03AA41464D48006800F0ADFB0398DA
:101B500002F0DAF841EC190B53EC192B48A0FEF710
:101B6000EFFB484601F0D4FB4AA0FEF7E9FB9FEDEE
:101B70004E0AF0EE408A2B464A46B0EE680A4146CD
:101B80003E480094006800F035FE03AA41463B48F9
:101B9000006800F089FB039802F0B6F841EC190BDD
:101BA00053EC192B36A0FEF7CBFB484601F0B0FBF7
:101BB0003EA0FEF7C5FB9FED450AF0EE408A4FF4CC
:101BC0007A796426C82733464A46B0EE680A414609
:101BD0002A48CDE900750294006800F073FE03AA5C
:101BE00041462648006800F05FFB039802F08CF83D
:101BF00041EC190B53EC192B21A0FEF7A1FB4FF47C
:101C0000FA6001F085FB32A0FEF79AFB9FED380ADF
:101C1000F0EE408A9FED378A00BF00BF3B46324658
:101C2000F0EE480AB0EE680A41461448CDE9005487
:101C3000006800F0BBFE03AA41461048006800F0AF
:101C400033FB039802F060F841EC190B53EC192BAD
:101C50000BA0FEF775FB4FF4FA6001F059FB5DE74E
:101C60004D5475726E20474F544F3A203732302E04
:101C700030660D0A0000000000003444140000200B
:101C800043757220416E676C653A20252E31660DD2
:101C90000A0000004D5475726E20474F544F3A2091
:101CA000302E30660D0A0000000000004D547572A1
:101CB0006E2B496E74657276616C20474F544F3AB3
:101CC000202D3138302E30660D0A000000003443DC
:101CD0004D5475726E2B56656C6F6369747920472D
:101CE0004F544F3A202D3138302E30660D0A000007
:101CF000000034C30000C8422DED028B82B00025E5
:101D00004FF4FA769FED150A8DED010A3246294609
:101D10001348006800F035FA1FE001AA2946104870
:101D2000006800F083FA04465CB9019801F0ECFF0A
:101D300041EC180B53EC182B29460AA0FEF700FBC8
:101D400007E02246294610A0FEF7FAFA1BA0FEF78C
:101D5000F7FA4FF4FA7001F0DBFADEE7000000005A
:101D6000140000205B494E464F5D20736572766F0C
:101D70002069643D202564203B20616E676C6520EE
:101D80003D2025660D0A00000D0A5B494E464F5D59
:101D9000207265616420736572766F20256420610E
:101DA0006E676C652C2073746174757320636F6447
:101DB000653A202564200D0A000000005B45525260
:101DC0004F525D6661696C656420746F2072656155
:101DD0006420736572766F20616E676C650D0A0012
:101DE000C0B000251CA0FEF7ABFA34E0681C85B239
:101DF000642D0ADB00201E4908601EA0FEF7A0FA31
:101E000001202049C1F8A40200251F49886801F07B
:101E1000C7F80446E4B100201549086021461BA01C
:101E2000FEF78EFA1FA0FEF78BFA17492246886844
:101E3000694601F05AF9144922460868694601F0DA
:101E400003FD1AA0FEF77CFA01200E49C1F8A40296
:101E50000A2001F05DFAC9E73D3D3D5465737420E9
:101E60005573617274204563686F3D3D3D0D0A00F6
:101E7000A4824242496E70757420446174610D0AF7
:101E800000000000008042424C1000204461746158
:101E90002052656376202564202042797465730D95
:101EA0000A0000004543484F3A2000000D0A000098
:101EB00000241425002629E001262B46324621461F
:101EC0001348006800F037FE40F6B83001F020FA01
:101ED00021460F48006800F099FE4FF47A7001F037
:101EE00017FA00262B46324621460948006800F0C2
:101EF00022FE40F6B83001F00BFA21460448006893
:101F000000F084FE4FF47A7001F002FAD4E700008A
:101F10001400002008B50026C8250027012427E06A
:101F200001272B463A46314612480094006800F0DB
:101F300041FE29462046FFF75FFB804601F0E8F9A5
:101F40004FF47A7001F0E4F900272B463A46314607
:101F500008480094006800F02DFE29462046FFF74F
:101F60004BFB804601F0D4F94FF47A7001F0D0F9C0
:101F7000D6E700001400002008B50025142600272D
:101F800040F6B8341FE0012733463A4629460E484A
:101F90000094006800F024FE204601F0B9F94FF4E7
:101FA0007A7001F0B5F9002733463A4629460648CB
:101FB0000094006800F014FE204601F0A9F94FF4E7
:101FC0007A7001F0A5F9DEE7140000202DED048BF6
:101FD00084B000259FED380AB0EE408A9FED370AA5
:101FE000F0EE408A01200390B2EE040A28EE000AC7
:101FF000BDEEC00A10EE100A80B20290022002ABC1
:102000003322294600902E48006800F010FE044656
:1020100018EE100A01F078FE41EC190B53EC192B65
:1020200028A00094FEF78CF9B2EE040A28EE800A8C
:10203000BDEEC00A10EE100A80B20290022002AB80
:102040003422294600901E48006800F0F0FD044646
:1020500018EE900A01F058FE41EC190B53EC192BC5
:1020600024A00094FEF76CF9012003AB342229462A
:1020700000901348006800F0DAFD0446214629A0CC
:10208000FEF75EF917E0012000234FF4FA629FED9E
:102090000A0A294600900A48006800F04DFA01201B
:1020A00000234FF4FA629FED050A29460090044888
:1020B000006800F041FAE6E70000B4420000B4C254
:1020C00014000020777269746520616E676C65206A
:1020D0006C696D69742068696768203D2025662CED
:1020E0002073746174757320636F64653A2025648E
:1020F0000D0A0000777269746520616E676C652057
:102100006C696D6974206C6F77203D2025662C20EA
:1021100073746174757320636F64653A2025640D70
:102120000A000000656E61626C6520616E676C6517
:10213000206C696D6974206D6F64652C2073746107
:1021400074757320636F64653A2025640D0A00007E
:1021500070B590B004466A4632210DA800F064FFC5
:102160000DA9204600F02BF80DA800F019FF401E25
:1021700086B231460DA800F041FF0546284610B052
:1021800070BD2DE9FF4105460E461446032703AAFC
:102190000321684600F048FF3146684600F0B4FF6E
:1021A0002146684600F0E2FF0DF10D0303220921EC
:1021B000284600F0A2F9002004B0BDE8F08170B517
:1021C00004460D462188284600F0D0FFA178284615
:1021D00000F09AFFE178284600F096FFE278211D92
:1021E000284600F099FF284600F0F4FE06463146E6
:1021F000284600F089FF70BD73B58EB006460FAB60
:1022000001221146304600F078F96946304600F068
:10221000BDF8044644B99DF804509DF83C00854241
:1022200002D0072010B070BD2046FBE72DE9F74330
:102230002DED048B8EB0804614464FF0010913AB90
:1022400001220A21404600F058F96946404600F054
:102250009DF8074617BB9DF804509DF84C00854239
:1022600005D007200EB0BDEC048BBDE8FE839DF8C1
:1022700005109DF8060041EA002006B2304601F044
:10228000D7FC41EC190B9FED060B53EC102B01F022
:1022900077FB41EC180B01F041FB20603846E1E789
:1022A00000000000000024402DE9F7432DED048BD1
:1022B0008EB0804614464FF0010913AB0122102165
:1022C000404600F01AF96946404600F05FF80746BC
:1022D0004FBB9DF804509DF84C00854205D0072067
:1022E0000EB0BDEC048BBDE8FE839DF805109DF893
:1022F000060041EA00219DF8070041EA00419DF8EF
:10230000080041EA0066304601F092FC41EC190BEE
:102310009FED060B53EC102B01F032FB41EC180B38
:1023200001F0FCFA20603846DAE700000000000007
:10233000000024402DE9F0438FB081460C4615463D
:102340001E46169F8DF838408DF839500EAB02228C
:102350000321484600F0D1F86946484600F016F8D7
:102360008046B8F1000F0DD19DF80300801E387033
:10237000002004E001A9821C895C3154401C39789A
:102380008142F7DC40460FB0BDE8F0832DE9F04113
:1023900005460C46002084F83700002700266420FC
:1023A00000F08EFF87E0A86800F0FAFD00B982E037
:1023B00094F8370000F00800C8B1A86800F08FFE5C
:1023C00004F8360F607840F010006070363C20460C
:1023D000FFF7BEFE94F83610884204D000F080FF6C
:1023E0000620BDE8F08100F07BFF0020F9E794F8BB
:1023F000370000F0040080B1A86800F070FE211DD5
:10240000C855781CC7B2E078B84253D194F8370069
:1024100040F0080084F837004CE094F8370000F0F2
:10242000020088B1A86800F05AFEE070E0782D281C
:1024300003DD00F055FF0520D3E794F8370040F0A6
:10244000040084F8370035E094F8370000F001000C
:1024500088B1A86800F043FEA070A078112803DDC1
:1024600000F03EFF0420BCE794F8370040F0020083
:1024700084F837001EE03EB9A86800F030FE06463A
:10248000052E17D0002615E0052E12D1A86800F001
:1024900026FE46EA002641F60540864201D0002687
:1024A00008E0268094F8370040F0010084F83700F7
:1024B00000E0002600BF00F021FF00283FF473AFCA
:1024C00002208EE773B58EB0054601260FAB0122C0
:1024D0000221284600F011F869462846FFF756FF0A
:1024E000044644B99DF80510012902D1002010B01E
:1024F00070BD0120FBE72046F9E7F0B58FB0054637
:102500000E4614461F4644F61240ADF804008DF8FE
:1025100006608DF80740002003E03A5C02A90A54E7
:10252000401CA042F9DB01A86968FFF748FE284675
:1025300001F06AF90FB0F0BD2DE9F0432DED028BEB
:1025400085B006460F46B0EE408A14461D46DDF8BB
:1025500038804FF0070903AA0721684600F064FDA0
:102560009FED230AB4EEC08AF1EE10FA04DD9FED70
:10257000200AB0EE408A0AE09FED1E0AB4EEC08A3F
:10258000F1EE10FA03D29FED1B0AB0EE408A3946F5
:10259000684600F0B9FDB2EE040A28EE000ABDEE6E
:1025A000C00A10EE100A01B2684600F0CDFD2146C7
:1025B000684600F0DBFD2946684600F0D7FD0DF1C6
:1025C0000D03072208213046FFF797FFB8F1000FEF
:1025D0000BD00022B0EE480A3946304600F076FAB9
:1025E00005B0BDEC028BBDE8F0830020F8E70000E9
:1025F00000003443000034C32DE9F04F2DED028B71
:1026000087B007468846B0EE408A15461C46DDE98D
:10261000139A129E4FF00B0B04AA0B2101A800F095
:1026200003FD9FED2A0AB4EEC08AF1EE10FA04DD34
:102630009FED260AB0EE408A0AE09FED250AB4EE2F
:10264000C08AF1EE10FA03D29FED210AB0EE408A63
:10265000142C00DA1424142E00DA1426414601A8A2
:1026600000F052FDB2EE040A28EE000ABDEEC00AE8
:1026700010EE100A01B201A800F066FD294601A87B
:1026800000F074FD214601A800F070FD314601A85C
:1026900000F06CFD494601A800F068FD0DF1110342
:1026A0000B2211463846FFF728FFBAF1000F0BD076
:1026B0000022B0EE480A4146384600F007FA07B05B
:1026C000BDEC028BBDE8F08F0020F8E7000034433A
:1026D000000034C32DE9F0472DED028B86B006468D
:1026E0000F46B0EE408AF0EE608A14461D46DDE9E2
:1026F00010894FF00B0A03AA0B21684600F094FCE6
:102700009FED390AB4EEC08AF1EE10FA04DD9FEDB8
:10271000360AB0EE408A0AE09FED340AB4EEC08A71
:10272000F1EE10FA03D29FED310AB0EE408AB7EE17
:10273000000AF4EEC08AF1EE10FA04D2B7EE000AF5
:10274000F0EE408A0AE09FED2A0AF4EEC08AF1EE2C
:1027500010FA03DD9FED260AF0EE408A142C00DA11
:102760001424142D00DA14253946684600F0CCFCF8
:10277000B2EE040A28EE000ABDEEC00A10EE100AFE
:1027800001B2684600F0E0FCB2EE040A28EE800ACE
:10279000BCEEC00A10EE100A81B2684600F0E6FCFA
:1027A0002146684600F0E2FC2946684600F0DEFC5F
:1027B0004146684600F0DAFC0DF10D030B220C21B6
:1027C0003046FFF79AFEB9F1000F0BD00022B0EEB1
:1027D000480A3946304600F079F906B0BDEC028B64
:1027E000BDE8F0870020F8E700003443000034C360
:1027F00000803B442DE9F0432DED028B87B0064667
:102800000F46B0EE408A14461D46DDF840804FF07A
:102810000B0904AA0B2101A800F006FC9FED260A73
:10282000B4EEC08AF1EE10FA04DD9FED230AB0EE9B
:10283000408A0AE09FED210AB4EEC08AF1EE10FA58
:1028400003D29FED1E0AB0EE408AB4F57A1F03D979
:102850009FED1B0AB0EE408A394601A800F054FCF7
:10286000B2EE040A28EE000ABDEEC00A10EE101AFD
:1028700001A800F060FC214601A800F06EFC29B21E
:1028800001A800F061FC0DF111030B220D2130466F
:10289000FFF733FEB8F1000F0BD00122B0EE480A6B
:1028A0003946304600F012F907B0BDEC028BBDE8A6
:1028B000F0830020F8E700000000B4480000B4C82E
:1028C00000007A4A2DE9F04F2DED028B87B00746C4
:1028D0008846B0EE408A14461D46DDE9139A129EE2
:1028E0004FF00F0B03AA0F21684600F09DFB9FEDF0
:1028F0002D0AB4EEC08AF1EE10FA04DD9FED290A2C
:10290000B0EE408A0AE09FED280AB4EEC08AF1EEEC
:1029100010FA03D29FED240AB0EE408AB4F57A1F74
:1029200001D94FF47A14142D00DA1425142E00DA8C
:1029300014264146684600F0E7FBB2EE040A28EE92
:10294000000ABDEEC00A10EE101A684600F0F3FB54
:102950002146684600F001FC2946684600F006FC66
:102960003146684600F002FC0FFA89F1684600F033
:10297000EBFB0DF10D030F220E213846FFF7BDFDD5
:10298000BAF1000F0BD00122B0EE480A414638469A
:1029900000F09CF807B0BDEC028BBDE8F08F002082
:1029A000F8E700000000B4480000B4C82DE9F04783
:1029B0002DED028B88B006460F46B0EE408AF0EE51
:1029C000608A14461D46DDE912894FF00D0A04AAFB
:1029D0000D2101A800F028FB9FED390AB4EEC08A52
:1029E000F1EE10FA04DD9FED360AB0EE408A0AE0FF
:1029F0009FED340AB4EEC08AF1EE10FA03D29FEDD7
:102A0000310AB0EE408AB7EE000AF4EEC08AF1EE69
:102A100010FA04D2B7EE000AF0EE408A0AE09FED09
:102A20002A0AF4EEC08AF1EE10FA03DD9FED260AC1
:102A3000F0EE408A142C00DA1424142D00DA142548
:102A4000394601A800F060FBB2EE040A28EE000A45
:102A5000BDEEC00A10EE101A01A800F06CFBB2EE39
:102A6000040A28EE800ABCEEC00A10EE100A81B2F9
:102A700001A800F07BFB214601A800F077FB294666
:102A800001A800F073FB0FFA88F101A800F05CFBCD
:102A90000DF111030D220F213046FFF72EFDB9F184
:102AA000000F0BD00122B0EE480A3946304600F044
:102AB0000DF808B0BDEC028BBDE8F0870020F8E708
:102AC0000000B4480000B4C800803B44F0B52DEDD0
:102AD000028B81B006460F46B0EE408A14460025B0
:102AE00028E02CB16A4639463046FFF7DDFB04E0AA
:102AF0006A4639463046FFF799FB9DED000A38EEED
:102B0000400AF0EEC08AB7EE000AF4EEC08AF1EE99
:102B100010FA04D8002001B0BDEC028BF0BD681C97
:102B200085B242F21070854201DB0120F3E7642098
:102B300000F0EEFBD5E72DE9F8430746884614463A
:102B4000994601250CB145F0800500264B462A46E2
:102B500041463846009600F002F8BDE8F8832DE9BA
:102B6000F04385B006460F4614461D46DDF830801A
:102B70004FF0060903AA0621684600F055FA3946C7
:102B8000684600F0C1FA2146684600F0BDFA2946C1
:102B9000684600F0EBFA4146684600F0E7FA0DF1AE
:102BA0000D03062207213046FFF7A7FC002005B0E1
:102BB000BDE8F0832DE9F84306460F4614469846D3
:102BC000DDF8209002250CB145F0800543462A46E9
:102BD00039463046CDF80090FFF7C1FFBDE8F883D5
:102BE0002DE9F84306460F4614469846DDF8209036
:102BF00003250CB145F0800543462A463946304648
:102C0000CDF80090FFF7ABFFBDE8F8832DE9F8435E
:102C100004460D4600260027B0463B46324629466C
:102C20002046CDF80080FFF79AFFBDE8F8832DE934
:102C3000F04F8FB083460F4690469946189EB01CC1
:102C40000E900E98FDF725FB0446277084F801804E
:102C5000002004E019F80020811C6254401CB0429E
:102C6000F8DBB01CC2B2234604215846FFF745FCEE
:102C700069465846FFF78AFB05463DB99DF80600B0
:102C8000012801D1002500E0012500BFAA46204609
:102C9000FDF72EFB50460FB0BDE8F08FF0B50A46A9
:102CA00000210023002400BF3DE0012505FA01F3C7
:102CB000156805EA03049C4234D105684F000326D9
:102CC000BE40B543056015794E00B54006683543F2
:102CD00005601579012D02D01579022D16D1856870
:102CE0004F000326BE40B543856055794E00B54080
:102CF000866835438560456801268E40B54345604A
:102D0000456896798E40B6B235434560C5684F0038
:102D10000326BE40B543C560D5794E00B540C668B0
:102D20003543C560491C1029BFD3F0BDF0B5002361
:102D300000244D07ED0E02FA05F3CE1000F1200538
:102D400055F826504E07F70E0F26BE40B543CF105C
:102D500000F1200646F82750CE1000F1200555F866
:102D6000265045EA0304CE1000F1200545F8264020
:102D7000F0BD0183704700BFFEE700001CB50121D4
:102D8000202000F05DF84FF4C060009001208DF825
:102D9000040000208DF8060003208DF805000120B6
:102DA0008DF8070069460448FFF778FF4FF4C061CB
:102DB0000148FFF7DEFF1CBD0014024000BFFEE724
:102DC0007047000070B5002100230F22C4781CB3A7
:102DD000174C246804F4E064C4F5E064C4F30721EC
:102DE000C1F10404E3B20A4144789C40E1B2847822
:102DF000144021430C07210E0E4C057861550478D0
:102E000004F01F050124AC4005786D11AD0005F1FB
:102E1000E025C5F8004109E0047804F01F0501240D
:102E2000AC40054D0678761145F8264070BD00008F
:102E30000CED00E000E400E080E100E070470000FD
:102E400029B1064A12680243044B1A6004E0034A9F
:102E500012688243014B1A6070470000303802400C
:102E600029B1064A12680243044B1A6004E0034A7F
:102E700012688243014B1A607047000040380240DC
:102E800029B1064A12680243044B1A6004E0034A5F
:102E900012688243014B1A607047000044380240B8
:102EA000F0B5002100220024022500260223324F23
:102EB0003F6807F00C0121B1042905D0082937D15A
:102EC00005E02E4F076036E02D4F076033E02A4FB4
:102ED0003F1F3F68C7F38056274F3F1F3F6807F0EB
:102EE0003F036EB1264FB7FBF3F7DFF88CC0ACF1B0
:102EF000040CDCF800C0CCF3881C07FB0CF40CE0DD
:102F00001E4FB7FBF3F7DFF870C0ACF1040CDCF830
:102F100000C0CCF3881C07FB0CF4174F3F1F3F6821
:102F2000C7F301477F1C7D00B4FBF5F7076002E0A3
:102F3000124F076000BF00BF0F4F3F6807F0F0015E
:102F40000909104F7A5C0768D74047600A4F3F680D
:102F500007F4E051890A0B4F7A5C4768D7408760D5
:102F6000054F3F6807F46041490B064F7A5C47689C
:102F7000D740C760F0BD0000083802400024F400CC
:102F800000127A002000002030B50446204600F0F0
:102F90001CF80546204600F003F8281A80B230BD20
:102FA00000B502469088D188884209DD104600F0BD
:102FB0000CF89188D388C91A491E401A80B200BD06
:102FC000D0889188401A80B2F9E701460889401EEE
:102FD00080B27047F0B506463046FFF7E1FF07467E
:102FE0000025002406E0A1B2304600F007F828448E
:102FF000C5B2641CBC42F6DBE8B2F0BD70B5044655
:103000000D462046FFF7CCFFA84201DC002070BD32
:10301000A0882844401C218990FBF1F201FB12009A
:1030200086B22068805DF2E730B50B460260002171
:103030008180C180591C0181002104E000240568C1
:103040006C544C1CA1B204898C42F7DC30BD10B525
:1030500004462046FFF798FF02462046FFF7B5FFDB
:10306000824201D1012010BD0020FCE710B50446CA
:103070002046FFF789FF08B9012010BD0020FCE7BA
:1030800030B504462046FFF7E2FF08B1002030BD0E
:10309000A088401C218990FBF1F201FB1200A08066
:1030A000A1882068455C0020A288216888542846B1
:1030B000EDE730B504460D462046FFF7D7FF10B1C7
:1030C0002046FFF7DDFFE088401C218990FBF1F2EC
:1030D00001FB1200E080E1882068455430BD10B546
:1030E00004462046FFF7CCFF10BDF0B507460D465D
:1030F0001646002405E03846FFF7C2FF2855601C3D
:1031000084B2B442F7DBF0BD30B504460D46294623
:103110002046FFF7CEFF30BDF0B507460D461646F8
:10312000002405E0295D3846FFF7C3FF601C84B228
:10313000B442F7DBF0BD33B5044601AD04222946A5
:103140002046FFF7E9FF3CBD33B5044601AD02223E
:1031500029462046FFF7E0FF3CBD33B5044601ADEC
:10316000042229462046FFF7D7FF3CBD33B504466D
:1031700001AD022229462046FFF7CEFF3CBD704735
:103180000CB50020019000903448006840F4803075
:103190003249086000BF3148006800F400300090F8
:1031A0000198401C0190009818B90198B0F5A04F03
:1031B000F1D12A48006800F4003010B101200090DD
:1031C00001E0002000900098012846D123484030BB
:1031D000006840F080502149403108602048006874
:1031E00040F440401E4908601C48083000681B49F4
:1031F000083108600846006840F40040086008464E
:10320000006840F4A05008601648091F0860081FB5
:10321000006840F08070091F086000BF0F48006818
:1032200000F000700028F9D040F205700E490860E7
:103230000A480830006820F0030008490831086097
:103240000846006840F00200086000BF03480830EC
:10325000006800F00C000828F8D10CBD00380240CE
:103260000070004008544007003C024030B5014661
:10327000481EB0F1807F01D3012030BD481E4FF0C1
:10328000E022506150170F22002807DA13071D0EA5
:10329000094B00F00F04241F1D5503E013071C0EFB
:1032A000064B1C5400BF00204FF0E0229061072025
:1032B00010610020E1E7000018ED00E000E400E00C
:1032C00001B50649009808604FF0E020006940F021
:1032D00001004FF0E021086108BD00001C00002043
:1032E0000020054908604FF0E020006920F001004F
:1032F0004FF0E021086170471C000020034800687F
:1033000008B9012070470020FCE700001C000020E5
:1033100001B503490098086000F02CF808BD0000D2
:103320001C0000200648006828B105480068401EBF
:103330000349086002E0002001490860704700006E
:103340001C00002010B50A4800684FF47A71B0FBE9
:10335000F1F42046FFF78AFF08B100BFFEE74FF007
:10336000E020006920F001004FF0E021086110BD6D
:10337000000000204FF0E020006940F001004FF015
:10338000E021086100BF064800680028FBD14FF02B
:10339000E020006920F001004FF0E0210861704753
:1033A0001C00002010B51548006840F47000134957
:1033B00008601348006840F00100114908600020CF
:1033C0000F49083108600E4800680E4908400C4952
:1033D00008600D48091D0860081F006820F480205F
:1033E000091F0860002006490C310860FFF7C8FE7D
:1033F0004FF0006001498039086010BD88ED00E0A1
:1034000000380240FFFFF6FE1030002410B540F2F5
:103410002551074800F048F840B1054800F0FEF893
:10342000C4B2044988682146FFF743FE10BD00007E
:10343000001001404C10002010B540F22551074803
:1034400000F032F848B10649086800F0E7F8C4B265
:10345000034988682146FFF72CFE10BD0044004058
:103460007420002001F40072B2F5007F00D100BF8B
:10347000CA430280704721B1828942F4005282819E
:1034800004E082894DF6FF731A408281704702463C
:103490000020B1F5007F00D100BF13880B400BB1B5
:1034A000012000E00020704770B502460024002390
:1034B0000025002040F66A16B14200D100BFC1F3DA
:1034C000421501F01F03012606FA03F3012D02D174
:1034D0009689334006E0022D02D1168A334001E07E
:1034E000968A33400C12012606FA04F416883440FA
:1034F00013B10CB1012000E0002070BDF0B503460F
:10350000002400260025002040F66A17B94200D1A9
:1035100000BF1846C1F3421401F01F06012707FA45
:1035200006F5012C01D10C3004E0022C01D1103041
:1035300000E014301AB107682F43076002E0076803
:10354000AF430760F0BD00002DE9FF4705460E467A
:103550000024A14600BFA046B08900B100BF2C8A5C
:1035600024F44054F08804432C82AC8941F20C606E
:103570008443B08831890843718908430443AC818E
:10358000AC8A24F44074B0890443AC826846FFF7E7
:1035900087FC2048854202D01F48854202D1DDF8D1
:1035A0000C9001E0DDF80890A88900F4004040B1DB
:1035B00009EBC90000EB091031684900B0FBF1F7D5
:1035C00007E009EBC90000EB091031688900B0FB86
:1035D000F1F76420B7FBF0F004012009642101FB3E
:1035E0001078A88900F4004040B1322000EBC800F8
:1035F000B0FBF1F000F00700044308E0322000EBDC
:1036000008106421B0FBF1F000F00F0004432C819E
:10361000BDE8FF8700100140001401400146888882
:10362000C0F308007047C1F308028280704700BFF2
:10363000FEE7000000B587B0664867490860674A42
:10364000C1146748FFF7F0FC664A4FF40061664812
:10365000FFF7EAFC644860498860614848600121DE
:103660000846FFF7EDFB01211020FFF709FC0722B8
:1036700009215E48FFF75AFB07220A215B48FFF742
:1036800055FB4FF4C060059002208DF818008DF8AE
:10369000190000208DF81A0001208DF81B0005A9E3
:1036A0005248FFF7FBFA4FF4E13001900020ADF8EB
:1036B0000800ADF80A00ADF80C00ADF810000C20C1
:1036C000ADF80E0001A94348FFF73EFF0121414834
:1036D000FFF7D1FE40213F48FFF7C4FE012240F230
:1036E00025513C48FFF70AFF25208DF800000320F4
:1036F0008DF801008DF8020001208DF80300684666
:10370000FFF760FB3A483B4908603B4AC1143B481D
:10371000FFF78AFC3A4A4FF400613A48FFF784FC0D
:103720003848344988603548486001210846FFF729
:1037300087FB01214804FFF793FB072202212B4856
:10374000FFF7F4FA072203212848FFF7EFFA0C20CD
:10375000059002208DF818008DF8190000208DF8D2
:103760001A0001208DF81B0005A92048FFF796FAE2
:103770004FF4E13001900020ADF80800ADF80A00E8
:10378000ADF80C00ADF810000C20ADF80E0001A94A
:103790001748FFF7D9FE01211548FFF76CFE4021BD
:1037A0001348FFF75FFE012240F225511048FFF752
:1037B000A5FE26208DF8000003208DF801008DF86D
:1037C000020001208DF803006846FFF7FBFA07B0FE
:1037D00000BD0000001001404C100020300000200F
:1037E000341000203108002040100020000002406A
:1037F0000044004074200020581000205C2000206D
:10380000591800206820002070B5044607E0606861
:10381000FFF736FC05462946206800F006F8606888
:10382000FFF7BEFB0028F2D170BD70B504460D460F
:1038300029462046FFF7F7FE00BF80212046FFF70C
:1038400026FE0028F9D070BD2DE9F04107460D464F
:103850001646002405E0295D3846FFF7E6FF601CA8
:1038600084B2B442F7DBBDE8F08103B401984100B3
:10387000009850EAC12018BF04204A0D18BF40F03C
:10388000010040F2FF72B2EB515F08BF40F002004E
:10389000012808BF052002B0704730380A2801D23D
:1038A000012070470020704700BF7047704700003C
:1038B00070B504460D4600BF06480068008800F059
:1038C00040000028F8D0E1B2024A1068FFF7ABFED2
:1038D000204670BD4C10002010B5FFF733FDFFF7F8
:1038E0004DFAFFF7A7FE0420FDF7CCFF002010BD26
:1038F00010B500290AD00878002807D00548784478
:10390000FDF756FA002801D0002010BD0248784487
:1039100010BD0000BA050000B205000021F0004211
:10392000A2F16052B2F5801F01F0004328BFD2F12E
:103930007F6C0BD95FEA001C43EAC20242EB507075
:1039400018BF704728BF20F001007047B2F5801FF4
:10395000BCBF184670474FEA410C1CF5001F02D24D
:10396000084600F047BA70B500F079F90000008908
:10397000FFF7F6BF4FF00040A0F580007047000051
:103980002DE9C04130B4DFF8A0C23CEA111418BFE1
:103990003CEA131400F0EC8081EA03051CEA1114E0
:1039A00044EAD57418BF1CEA131500F0C780A4EBD5
:1039B00005044FF0004545EAC12145EAC32341EA29
:1039C000505143EA525304F17F74994204F5003494
:1039D0004FEAC0204FEAC22208BF904200F09C800C
:1039E0004FEA13650FF24016765D4FEA134506FB6A
:1039F00005F7C7F1807706FB07F74FEAD737A7FB34
:103A000003687642C8F58038A7FB06CE38BFA8F118
:103A1000010807FB08E64FF0000EA6FB028CE6FB50
:103A200003CEDCF1000CCEF1004E38BFAEF1010E3A
:103A3000A6FB0C584FF000074FF00005E6FB0E8781
:103A4000A1FB08C6A0FB07CE16EB0E0645F100054C
:103A5000E1FB076515F1E04E7EBFA4F580345FEA17
:103A600046066D4116F1800745F100054FEA17271C
:103A70004FEA066647EA0567A6F1DE46B6F1805FC3
:103A80004FEA15251FD9384624F0010C05EBC47107
:103A9000BCF1FE6F01EB0C1102D8F0BCBDE8008157
:103AA00024425CBF01F5801E9EEAC47F02D4F0BCB4
:103AB000BDE80081244238D4F0BCA1F1C041BDE88A
:103AC000004100F01AB94FEAD22242EA43524FEACB
:103AD000D323A7FB02864FEAD02040EA415007FBE0
:103AE00003661EEA0E0F4FEAD12105FB026658BF9E
:103AF000A6EB0056B6EB00564FEA520E4EEAC37ED6
:103B000018EB0E0E56EB530EBDD518EB02085E41B6
:103B10007F1C55F10005B6E74FF480154FF0000704
:103B20004FF000064FF00008ADE7F0BC4FF000008A
:103B300001F1C04101F00041BDE8008111EA0C1F14
:103B40000CEA131500D00CE013EA0C1F00F02580DE
:103B50004FF00000F0BC81EA030101F00041BDE834
:103B60000081F0BCBDE8004181EA030100F0C5B866
:103B7000F0BCBDE8004170B500F071F8097EFC3E74
:103B800000F007B881EA03014FF0000001F00041A6
:103B9000704781EA030100F0B0B8F0BCBDE8004115
:103BA0004FF0000021497047FFFDFBF9F7F5F4F2F3
:103BB000F0EEEDEBE9E8E6E4E3E1E0DEDDDBDAD8C8
:103BC000D7D5D4D3D1D0CFCDCCCBCAC8C7C6C5C426
:103BD000C2C1C0BFBEBDBCBBBAB9B8B7B6B5B4B33D
:103BE000B2B1B0AFAEADACABAAA9A8A8A7A6A5A428
:103BF000A3A3A2A1A09F9F9E9D9C9C9B9A999998EC
:103C00009797969595949393929191908F8F8E8E8E
:103C10008D8C8C8B8B8A898988888787868585841B
:103C200084838382828181800000FF070000F87F07
:103C300010F0004248BF4042B0FA80F310FA03F19E
:103C40000AD0C3F11D0303F580634FEA415002EB34
:103C5000035202EBD12170474FF0000070470EF184
:103C6000020E2EF0030E5EF8046B364205D4012AD4
:103C700043EB030515F5001F12D8012841EB010C99
:103C80001CF5001F0CD80ED14FEAD17C15F5001F92
:103C90000CEB4C0C0CF1020C08BF4CEBD37C04E099
:103CA0004FF0080C01E04FEAD37C0CEB4C0526FAF0
:103CB00005F606F00706B6F1040C06D20EEB860CEC
:103CC000BDE870404CF0010C6047DFE80CF0090BD8
:103CD00002024FF000414FF00000A1F5002170BD3D
:103CE00019461046012851EB010418BFD4F5001401
:103CF00084BF002001F0004170BD0808A0F500114C
:103D00004FEA31017047000043004FEAD30C4FEAFD
:103D10003C0C43401FBF40070CF1605113F0FE4FB5
:103D200070471CF0006F03D100200CF00041704779
:103D30000CF0004343EA507010B540EACC0000F0AC
:103D40000EF800BF000000924FEA0001FFF7D5BF58
:103D50004FF000414FF00000A1F5002170470EF137
:103D6000020E2EF0030E5EF8044B244204D44FEAF8
:103D70004102B2F17F4F11D84FEA4003B3F17F4FB8
:103D80000CD80ED14FEAD07CB2F17F4F0CEB4C0C2B
:103D90000CF1020C08BF4CEBD17C04E04FF0080C96
:103DA00001E04FEAD17C0CEB4C0324FA03F404F05D
:103DB0000704B4F1040C06D20EEB840CBDE81040ED
:103DC0004CF0010C6047DFE80CF0070802024FF0EE
:103DD0000040A0F5800010BD0846420018BFD2F197
:103DE000807288BF00F0004010BD4FF04070E1EEDF
:103DF000100A7047FF2141EAD050C0057047FCF718
:103E0000F7BC000002400000000000A0000000001D
:103E100005400000000000C8000000000C40000049
:103E20000000409C00000000194000000020BCBEC3
:103E30000000000034400000BFC91B8E00000004D9
:103E4000B5400000504BCFD06607E2CF0100000024
:103E50006C4100003E8251AADFEEA7340100000051
:103E6000D9420000DCB5A0E23A301F97FFFFFFFF08
:103E7000B4450000FD25A0C8E9A3C14FFFFFFFFF27
:103E8000FF3F00000000008000000000FF3F000036
:103E90000000008000000000D43E00080000002068
:103EA00030000000C4010008043F0008300000207A
:103EB000B0260000E00100081C00000043000000E4
:103EC000F8FFFFFF0C0000000E0000000F000000D4
:103ED0002E000000007A030A00000000000000002D
:103EE00001020304060708097420002000000000F6
:103EF00000000000000000000102030401020304AE
:043F0000060708099F
:040000050800018965
:00000001FF
